:020000040800F2
:1000000060A8032071030008214800084B33000852
:100010001D4800080D1B0008577100080000000073
:10002000000000000000000000000000B102000815
:10003000E92E0008000000000D03000865690008B3
:100040008B0300088B0300088B0300088B03000858
:100050008B0300088B0300088B0300088B03000848
:100060008B0300088B0300088B0300088B03000838
:100070008B0300088B0300088B0300088B03000828
:100080008B0300088B0300088B0300088B03000818
:10009000051C00088B0300088B0300088B03000875
:1000A0008B0300088B0300088B0300088B030008F8
:1000B0008B0300088B030008116A00088B030008FB
:1000C0008B0300088B0300088B0300088B030008D8
:1000D0008B030008A16B0008516C0008716E0008CA
:1000E0008B0300088B0300088B0300088B030008B8
:1000F0008B0300088B0300088B0300088B030008A8
:100100008B030008B54F00088B0300088B03000821
:100110008B0300088B0300088B0300088B03000887
:100120008B0300088B0300088B0300088B03000877
:100130008B0300088B0300088B0300088B03000867
:100140008B030008751C00088B0300088B03000854
:100150008B0300088B0300088B0300088B03000847
:100160008B0300088B0300088B0300088B03000837
:100170008B0300088B0300088B0300088B03000827
:100180008B0300088B03000800F002F800F078F8F9
:100190000AA090E8000C82448344AAF10107DA45E2
:1001A00001D100F06DF8AFF2090EBAE80F0013F0BC
:1001B000010F18BFFB1A43F00103184730A80300D2
:1001C00050A803000A444FF0000C10F8013B13F054
:1001D000070408BF10F8014B1D1108BF10F8015BA0
:1001E000641E05D010F8016B641E01F8016BF9D193
:1001F00013F0080F1EBF10F8014BAD1C0C1B09D1EA
:100200006D1E58BF01F801CBFAD505E014F8016B5B
:1002100001F8016B6D1EF9D59142D6D370470000ED
:100220000023002400250026103A28BF78C1FBD8FF
:10023000520728BF30C148BF0B60704766290FF0D6
:100240008282642900F04C81752900F04981782967
:1002500000F08281632900F0AE86732900F0B38636
:10026000002070471FB50FF064FA00F0C3FE0400D1
:10027000002000210EF0FCFEE0601FBD10B510BD97
:1002800000F0BCFF1146FFF7EDFF09F055FF00F04D
:10029000DAFF03B4FFF7F2FF03BC06F07DFF0000B6
:1002A00030BF72B6704762B6704780F308887047F7
:1002B0002C4B19680868B0E8F04F80F30988BFF349
:1002C0006F8F4FF0000080F311887047000000002E
:1002D00008480068006880F308884FF0000080F349
:1002E000148862B661B6BFF34F8FBFF36F8F00DF24
:1002F00000BF00BF08ED00E0DFF80C00016841F42A
:1003000070010160704700BF88ED00E0EFF30980E5
:10031000BFF36F8F134B1A681EF0100F08BF20ED4C
:10032000108A20E9F04F106009B44FF0500080F3BC
:100330001188BFF34F8FBFF36F8F0DF0FFFF4FF0AA
:10034000000080F3118809BC19680868B0E8F04F14
:100350001EF0100F08BFB0EC108A80F30988BFF3BD
:100360006F8F704764020020EFF305807047000034
:100370000948804709480047FEE7FEE7FEE7FEE739
:10038000FEE7FEE7FEE7FEE7FEE7FEE70448054975
:10039000054A064B70470000A9690008890100085A
:1003A00060A2032060A8032060A4032060A40320AF
:1003B000704710B54C1084EA530404D54042C1F193
:1003C000000138BF491E1B4204D55242C3F100034D
:1003D00038BF5B1E00F0E8FA14F0804F04D04042B2
:1003E000C1F1000138BF491E14F0004F04D0524241
:1003F000C3F1000338BF5B1E10BD00000FB40449F9
:1004000010B503AA029800F0E3FD10BC5DF814FBE0
:10041000480000200FB41CB5084B06AA7B4469466F
:100420000090059800F0A5FD04460020694600F004
:10043000B3FD20461CBC5DF814FB0000790B0000E6
:1004400070B5044685690068C10601D5302600E014
:100450002026C00707D070BDD4E90121304690475F
:10046000206A401C20626D1EF6D570BD70B5044632
:1004700085690078C00707D170BDD4E9012120202B
:100480009047206A401C20626D1EF6D570BD70B585
:100490000C460546012A05D02878800600D5EA6971
:1004A000002302E0012305E05B1C934202D2E05CE2
:1004B0000028F9D1A869E618C01AA861286A18446A
:1004C00028622846FFF7BCFF04E0D5E9012114F8B3
:1004D000010B9047B442F8D32846FFF7C7FF70BD21
:1004E0002DE9F0410646002410687529314616A50D
:1004F00010D0AFF30080002802DA404213A507E0D5
:1005000031688A0701D512A502E0490704D511A573
:10051000012401E0AFF3008000210A2206F1240744
:1005200009E0B0FBF2FCB0FBF2F302FB1C00303040
:1005300078541846491C0028F3D123462A463046F1
:10054000BDE8F04100F0A7BA000000002D00000057
:100550002B0000002000000070B504460D46214627
:100560001068AFF300802188090502D50F4A7A444C
:1005700002E00E4A7A440E32002104F1240305E021
:1005800000F00F060009965D5E54491C0028F7D163
:1005900020780023000704D5702D02D009B1022372
:1005A00011322046BDE8704000F075BAE6A00300A5
:1005B0002DE9F05F894604464FF0000ADFF874B178
:1005C000FB44C0F820A02046E1688847002874D08A
:1005D000252806D0D4E901219047206A401C2062DA
:1005E000F1E700265F462046E16888472028054657
:1005F00007DB312D05D2781910F8200C08B106431D
:10060000F1E7B00701D526F00406C4F81CA00027C6
:10061000C4F818A02A2D09D0284606F0B6FD38B334
:1006200004EB8708303DC8F8185019E059F8041B4E
:10063000204604EB87029161E1688847012F054657
:1006400018D1E069002820DA26F020061DE0D8F84D
:10065000180000EB800005EB40003038C8F81800A7
:100660002046E1688847054606F08FFD0028EED158
:10067000012F0AD02E2D08D12046E16888477F1C23
:100680000546022F46F02006C4DBA069002803DAE5
:10069000404246F00106A061F00701D026F01006A6
:1006A0006C2D0BD0682D09D04C2D39D06A2D35D04A
:1006B000742D35D07A2D33D016E038E0E1682F461E
:1006C00020468847B842054609D16C2F26D04FF402
:1006D0008060E168064320468847054604E06C2FA9
:1006E0001AD04FF4807006430DB3A5F141001928CC
:1006F00002D8203546F400664A4629462046266040
:100700004E46FFF79BFD80B101280BD0F61D26F069
:10071000070000F1080956E74020E4E78020D8E709
:100720000020D6E706F104094DE7284652E7206A83
:10073000BDE8F09FBCA0030010B5431C02E010F818
:10074000011B71B18107FAD14FF0013202C88C1A36
:100750008C4314EAC211F9D0C01A0A0603D0C01E95
:1007600010BDC01A10BD0A0401D0801E10BD0902C0
:10077000FCD0401E10BD421E12F8013F002BFBD1E1
:1007800011F8013B002B02F8013BF9D17047032A15
:1007900040F2308010F0030C00F0158011F8013B9E
:1007A000BCF1020F624498BF11F801CB00F8013B85
:1007B00038BF11F8013BA2F1040298BF00F801CB49
:1007C00038BF00F8013B11F0030300F02580083A20
:1007D000C0F0088051F8043B083A51F804CBA0E877
:1007E0000810F5E7121D5CBF51F8043B40F8043BCC
:1007F000AFF30080D20724BF11F8013B11F801CB01
:1008000048BF11F8012B24BF00F8013B00F801CBD1
:1008100048BF00F8012B704710B5203AC0F00B809C
:10082000B1E81850203AA0E81850B1E81850A0E8F4
:100830001850BFF4F5AF5FEA027C24BFB1E818504E
:10084000A0E8185044BF18C918C0BDE810405FEABE
:10085000827C24BF51F8043B40F8043B08BF70473A
:10086000D20728BF31F8023B48BF11F8012B28BF3F
:1008700020F8023B48BF00F8012B704702F0FF034D
:1008800043EA032242EA024200F002B84FF00002BB
:100890000429C0F0128010F0030C00F01B80CCF192
:1008A000040CBCF1020F18BF00F8012BA8BF20F800
:1008B000022BA1EB0C0100F00DB85FEAC17C24BF54
:1008C00000F8012B00F8012B48BF00F8012B7047FE
:1008D0004FF0000200B5134694469646203922BFD9
:1008E000A0E80C50A0E80C50B1F12001BFF4F7AF24
:1008F000090728BFA0E80C5048BF0CC05DF804EB06
:10090000890028BF40F8042B08BF704748BF20F873
:10091000022B11F0804F18BF00F8012B7047000028
:100920004FF0013C50F8042B51F8043B9A4221D17E
:10093000A2EB0C03934313EACC1317D150F8042B0A
:1009400051F8043B9A4215D1A2EB0C03934313EAEE
:10095000CC130BD150F8042B51F8043B9A4209D127
:10096000A2EB0C03934313EACC13DBD04FF000004F
:10097000704700BFD01A01BAB1FA81F101F0180135
:1009800022FA01F0CB40C1F12001DBB2C0B2C01AA3
:100990002CFA01F3D11A914311EAC311E6D1704741
:1009A000704770477047704753EA020C00F0698047
:1009B0002DE9F04B4FF00006002B1FBFB3FA83F573
:1009C00003FA05F424FA05F65E4012BF1643B2FAA4
:1009D00082F502FA05F4C5F120051EBF22FA05FCD6
:1009E00044EA0C04203556EA044C4FEA144418BF7C
:1009F000641C4FF000084FF00009904271EB030CAB
:100A000039D3002919BFB1FA81F701FA07F6B0FA14
:100A100080F700FA07F6C7F120071EBF20FA07FC8F
:100A200046EA0C062037B6FBF4FCA7EB0507103F9F
:100A300007F01F0BCBF120060CFA0BFB2CFA06F685
:100A400044BFB3460026202FA4BF5E464FF0000BE4
:100A50005BEA060C08BF4FF0010B19EB0B09ABFB6F
:100A6000027C48EB0608C01B06FB02CC0BFB03CC48
:100A700071EB0C01C1E70B46024641464846BDE812
:100A8000F08B13B54FF000004FF00001AFF3008082
:100A9000BDE81C4070472DE9F0470D469946924647
:100AA000044600F124080168880604D5E06921F0B5
:100AB0001001216000E00120A84201DD471B00E099
:100AC0000027A1697A1902EB0900081AA0612078B1
:100AD000C00602D42046FFF7B3FC002608E0D4E9A4
:100AE00001211AF806009047206A401C761C2062FB
:100AF0004E45F4DB2078C0060AD52046FFF7A0FC5F
:100B000006E0D4E9012130209047206A401C206291
:100B1000381EA7F10107F4DC07E0D4E9012118F839
:100B200005009047206A401C2062281EA5F101059F
:100B3000F3DC2046FFF79AFC2078000602D502205D
:100B4000BDE8F0870120FBE770472DE9FF4F0C4619
:100B50001E464FF0FF378BB0D2E90001DDF8608010
:100B60000A908A46C1F30A5505B93D460021084658
:100B70004FF00000BAF1000F00F4400005DA00EB7E
:100B800080004FF4400101EA50004FEA9059B9F15A
:100B9000010F00DDB9460A9850EA4A000ED044F62B
:100BA0001050A5F2FF3545432F14B8F1000F1ED0A9
:100BB0007542291E1EDDC9F100021CE0B8F1010FCB
:100BC0004FF0000001D0302103E0F24305E0215452
:100BD000401CB042FBDB30460022002121540B991F
:100BE000C1F80880C1E900200FB0BDE8F08FBD1B3F
:100BF0006D1CDEE74A4600DA694206A800F084FA76
:100C000006AB93E8070003AB83E8070050460A9958
:100C100000F022FB8DE80700A0F500501F3800907F
:100C20000398002D0ADD42F21F014A4608440023C2
:100C300003A90390684600F08BFD09E0A0F5005081
:100C40004A461F38002303A90390684600F095FD2B
:100C50008DE807000004000C03D04FF0FF3041087E
:100C600000E01046B8F1000F03D0002200921546B4
:100C70001EE0751E05D400F0C1F9303262556D1EBC
:100C8000F9D5B3460122084302D000227F1C04E0BC
:100C90002078302801D100227F1E002A099784D0B5
:100CA0001DE0112D07DA00F0A9F9303262556D1CF4
:100CB00050EA0102F5D1084302D00098C8B10EE015
:100CC0000021681E05E0235C625C63542254401ED0
:100CD000491C8142F7DBAB46A81B401E099000204F
:100CE00004F80B000B98099AC0F80880C0E9002BA3
:100CF0007AE711264FF0000857E72DE9F04F8846B4
:100D00000446D21D22F0070191B0D1E90001CDE9DE
:100D10000A0106F022FA02460B98C00F01D02D20DE
:100D200007E02068810701D52B2002E0202101EA9D
:100D3000C000032A099001D0072A05DB034641467B
:100D4000204600F0A1F90BE12078800601D5E0698A
:100D500000E00620B8F1650F814606D0B8F1660FB5
:100D600018D0B8F1670F70D131E00020B9F1110F40
:100D7000009001DB112301E009F101030AAA01A996
:100D80000CA8FFF7E2FEDDE90C70002609F1010571
:100D9000834647E001204B4600904FF000470AAAE7
:100DA00001A90CA8FFF7D1FEDDE90DB00C995D4655
:100DB000002610B909F101000D18B9EB050003D4A4
:100DC000C0F1FF3609F10105A5EB09002BE0B9F1EF
:100DD000010F01DA4FF001090020B9F1110F009065
:100DE000484601DD112300E003460AAA01A90CA828
:100DF000FFF7ABFEDDE90C704D46002683462078F8
:100E000000070AD4AB4500DA5D4601A8012D04DDD8
:100E1000411911F8011C302907D04F4502DA17F1AA
:100E2000040F04DA012082460FE06D1EEEE7002F6A
:100E300002DCED1B3E4403E0781CA84200DD7D1C73
:100E4000B81B00F1010A4FF000472078000703D4D7
:100E5000AA4501DB4FF0FF3A0021B7F1004F0DF139
:100E600043088DF8431024D002202B23002F01DAF1
:100E70007F422D230A21021EA0F1010000DC5FB198
:100E800097FBF1FC97FBF1F201FB1C7C17460CF180
:100E9000300C08F801CDEEE7A8F1010003702188BD
:100EA000090501D5452100E06521A0F1010800F800
:100EB000011C09980FA9A1EB0807FF1D00B1012033
:100EC000411901EBEA70A1693844081A401EA0617B
:100ED0002078C00602D42046FFF7B2FA099828B15C
:100EE000D4E901219047206A401C20622078C00686
:100EF00022D52046FFF7A4FA1EE0002E04DBB345FE
:100F000002DD01A8805D00E03020D4E90121904796
:100F1000206A401C2062761CAAF101005FEA000AE8
:100F20000AD100F067F8C0680168405CD4E901218B
:100F30009047206A401C2062281EA5F10105DCDCD8
:100F400007E0D4E9012118F8010B9047206A401C02
:100F50002062381EA7F10107F3DC2046FFF786FA6E
:100F6000032011B041E6000001694A1C02610878C3
:100F7000704700B58FB0CDE90131002105910549D9
:100F80007944CDE9031011466846FFF711FB0FB015
:100F900000BD0000E5FFFFFF0A6802F8010B0A60D0
:100FA000704710B5436913B1AFF3008001E0FFF75C
:100FB0006EFA012010BD127800F124010A7000229F
:100FC0004A700122EDE711684FF0FF32E9E70000B7
:100FD000074B70B50D467B44FFF7CBFF0446284610
:100FE00000F004F910B14FF0FF3070BD204670BD25
:100FF000178E00000048704720A2032030B5B0F1E2
:101000000A024FEA900E71F100034EEA817EB0EBC6
:101010000E0061EB91014FEA101E4EEA017E10EBCB
:101020000E0041EB11114FEA102E4EEA016E10EB4B
:101030000E0041EB11214FEA104E4EEA014E10EB2B
:101040000E0041EB1141401841F100014FEAD00080
:1010500040EA41704FEAD10110EB80054FEA81046C
:1010600044EA907444EB01046D1944EB0404521BF0
:10107000A3414FF0000348BF0A3200D530BD401CE9
:1010800041F1000130BD00002DE9F0411F4604464A
:1010900003260168072A01F4006004DB08B116A5E5
:1010A00005E016A503E008B115A500E015A521F09F
:1010B00010002060A069C01EA0610FB1401EA06199
:1010C0002046FFF7BDF94FB1D4E9012138469047DA
:1010D000206A401C2062C01C206206E0206AFAE7F9
:1010E000D4E9012115F8010B9047761EF8D220466D
:1010F000FFF7BCF9BDE8F0814E414E006E616E0015
:10110000494E4600696E66002DE9F0478146164655
:101110008AB0354878440DC88DE80D0032487844CF
:10112000801C03AC0DC884E80D0041F69B300844D8
:10113000372190FBF1F290FBF1F5A5F1800501FB61
:1011400012041B3C02D56442012000E00020DFF8BD
:1011500098A080460027FA44AAF1BE0A0EE0E007F4
:101160000AD03246684607EB470101230AEB8101AA
:1011700000F003FB8DE8070064107F1C002CEED10B
:10118000194F7F44AE3F19E0E80715D007EB041074
:101190000DF1180A90E80E008AE80E00C068F042CF
:1011A00001D1981908903246012306A903A800F03E
:1011B000E4FA03AB83E807006D10641C002DE3D153
:1011C0004FF0010332466946B8F1000F03A802D080
:1011D00000F0BEFA01E000F0D0FAC9E90001C9F858
:1011E00008200AB0BDE8F087F8950300007B00F006
:1011F000800070470048704700A203207546FFF743
:10120000F9FFAE4605006946534620F007008546C3
:1012100018B020B5FFF7BAF8BDE820404FF000063F
:101220004FF000074FF000084FF0000B21F00701CE
:10123000AC46ACE8C009ACE8C009ACE8C009ACE811
:10124000C0098D46704710B50446AFF300802046B4
:10125000BDE81040FFF71DB85FEA400C08BF91F0F1
:10126000000F4FEA8C234FEAC12243EA51514FEA63
:101270001C5018BF00F5F0404FEA300018BF41F095
:1012800000415FEA6C5C00F02980BCF1FF3F08BFC1
:1012900040F080407047130C06BF12044FF0100C52
:1012A0004FF0000C130E04BF12020CF1080C130FC8
:1012B00004BF12010CF1040C930F04BF92000CF157
:1012C000020CD30F04BF52000CF1010C11464FF079
:1012D0000002A0F11F00A0EB0C00704711F0004FBE
:1012E00008BF704731F000413FF4D5AF0B0C06BF8B
:1012F00009044FF0100C4FF0000C0B0E04BF090254
:101300000CF1080C0B0F04BF09010CF1040C8B0F3E
:1013100004BF89000CF1020CCB0F04BF49000CF193
:10132000010CCCF12003A0EB0C0022FA03F302FA2B
:101330000CF241EA030100F10100704720F07F4CFC
:1013400080EA030023F07F47ACEB070303F57C53EF
:1013500000F0004003F1FF032DE980494FEA154BEF
:1013600009B44FEA144325EA0B4E24EA03480FF26E
:10137000042606EB132749083E785FEA320203FB96
:101380000667C7F5000707FB06F64FEA54374FEA32
:10139000D64606F1020607FB066CCCF1005C4FEA6C
:1013A0001C472CEA074C07FB06F40CFB06F504EB84
:1013B00015464FEA961634BF00204FF000404FEA22
:1013C000D13706FB07FC4FEA1C4C0CFB0BF7D21B7A
:1013D00003FB0CF761EB07010CFB0EF7B0EB0740CA
:1013E00072EB17420CFB08F734BFA2EB0742B2EBDB
:1013F000074261EB17414FEA0C444FEA910706FBA5
:1014000007FC4FEA1C4C0CFB0BF7B0EBC74072EB30
:10141000573203FB0CF734BFA2EBC742B2EBC74213
:1014200061EB57310CFB0EF7B0EBC70072EB577254
:101430000CFB08F734BFA2EBC702B2EBC70261EBAB
:101440005771039F4FEA816141EA921104EBCC048A
:101450004FEAD1374FEA826206FB07FC42EA90125C
:101460004FEA80604FEA1C4C0CFB0BF7D21B03FBCE
:101470000CF761EB07010CFB0EF7B0EB074072EBCA
:1014800017420CFB08F734BFA2EB0742B2EB07424E
:1014900061EB17414FEA8C554FEA910704EB9C240E
:1014A00006FB07FC4FEA1C4C0CFB0BF7B0EBC740EC
:1014B00072EB573203FB0CF734BFA2EBC742B2EB1F
:1014C000C74261EB57310CFB0EF7B0EBC70072EB74
:1014D00057720CFB08F734BFA2EBC702B2EBC7028E
:1014E00061EB577115EB4C254FEA816141EA92118E
:1014F0004FEA82624FEAD13742EA901206FB07FCBC
:1015000044F100044FEA80604FEA1C4C0CFB0BF7DF
:10151000D21B03FB0CF761EB07010CFB0EF7B0EBE2
:10152000074072EB17420CFB08F734BFA2EB0742EF
:10153000B2EB074261EB174115EB1C154FEA813105
:1015400041EA92414FEA823242EA90424FEA8030C9
:101550004FEA0C7644F1000448EA03434EEA0B4894
:101560004FF0000EB2EB080C71EB030724BF62468C
:1015700039464EEB0E0E4FF0000B00185241494118
:101580004BEB0B0BB2EB080C71EB03077BF1000B81
:1015900024BF624639464EEB0E0E4FF0000B00188A
:1015A000524149414BEB0B0BB2EB080C71EB0307BB
:1015B0007BF1000B24BF624639464EEB0E0E51EA1A
:1015C000020718BF46F0010616EB0E7655F1000231
:1015D00054F1000103D5BDE88901BDE80088BDE8EC
:1015E0008901BDE80048B619524141EB0101A3F160
:1015F0000103704780807F7E7D7C7B7A7978777667
:1016000076757473727171706F6E6E6D6C6C6B6ADF
:101610006A6968686766666564646363626161607D
:10162000605F5F5E5E5D5D5C5C5B5B5A5A595958FA
:101630005857575656555555545453535252525164
:10164000515050504F4F4F4E4E4D4D4D4C4C4C4BBA
:101650004B4B4A4A4A494949484848474747474601
:10166000464645454544444444434343434242423D
:1016700042414141002B9C4630D477002BD01CB511
:101680004FEA370703B44FF010004FF01001BAF1E2
:10169000000F06D0BCF1000FDCBF40F0080040F0A6
:1016A00008014FF000000FBCBDE810400BF1010B2A
:1016B000BBF1010F08BF5FEA170722BF12F1010259
:1016C00011F101014FF0004143F1000300F000402F
:1016D00043EA00007047F9D35708D0E746EA0646C8
:1016E00013F1400F4FEA16461FDD13F1200FDFBF45
:1016F00016430A46002120335B42BED0C3F12007C7
:1017000046EA064602FA07F74FEA164646EA070691
:10171000C3F1200722FA03F201FA07F721FA03F1D5
:101720004FF0000342EA0702A7E746EA020646EA4C
:1017300006464FEA164646EA0106BCBF46EA06469A
:10174000360C4FF000034FF000024FF0000194E719
:101750002DE9804C9A46934670B491E8380007C84A
:1017600031EA400C48BF34EA430C03D5FFF7E6FDED
:10177000FFF780FFF0BCBDE8008C2DE9804C9A4655
:10178000934670B491E8380007C810F0804F08BF46
:1017900013F0804F03D100F005F8FFF76BFFF0BCAA
:1017A000BDE8008C20F07F4780EA030023F07F4CE7
:1017B00007EB0C03A3F57C5300F00040A3F1FE03FC
:1017C00092F0000F00F0B38095F0000F00F07780EA
:1017D0002DE901494FEA11404FEA144621EA004839
:1017E00000FB06FC24EA064708FB06F607FB08F8A0
:1017F00000FB07F718EB06484CEB164C4FEA124B70
:1018000018EB07484FEA15464CEB174022EA0B4EFF
:101810000BFB06FC25EA06470EFB06F607FB0EFE51
:101820000BFB07F71EEB064E4CEB164C4FF0000679
:101830001EEB074E4CEB174B18EB0B0840F100006A
:1018400018EB0E0B58EB000840F100008F1A4FF018
:1018500000013CBFC943661B14BFB5EB040C00215B
:101860003CBFC943F61B4FEA17444EEA8E0E27EAE7
:1018700004454FEA1C4704FB07622CEA074C05FBB2
:1018800007F70CFB05F604FB0CFC16EB074642EBD6
:10189000174216EB0C4642EB1C421BEB060658EBBC
:1018A0000202414146EA9E0601D5BDE80189B6190A
:1018B000524141EB0101A3F10103BDE801894FEA67
:1018C00014454FEA114724EA054621EA074C05FB77
:1018D00007F406FB07F70CFB06F105FB0CFC11EB0C
:1018E000074144EB17444FEA124711EB0C4144EB1C
:1018F0001C4422EA074C05FB07F206FB07F70CFB2A
:1019000006F605FB0CFC16EB074642EB174216EBFE
:101910000C4642EB1C456A1854F1000148BF704761
:10192000B619524141EB0101A3F10103704795F053
:10193000000F37D04FEA11424FEA144721EA02461E
:1019400024EA074C02FB07F106FB07F70CFB06F441
:1019500002FB0CFC14EB074441EB17414FEA15471F
:1019600014EB0C4441EB1C4125EA074C02FB07F544
:1019700006FB07F70CFB06F602FB0CFC16EB074612
:1019800045EB174516EB0C4645EB1C42121951F17D
:10199000000148BF7047B619524141EB0101A3F164
:1019A000010370474FEA14454FEA114724EA054600
:1019B00021EA074C05FB07F106FB07F70CFB06F2D3
:1019C0004FF0000605FB0CFC12EB074241EB174100
:1019D00012EB0C4251EB1C4148BF7047921841EB8F
:1019E0000101A3F10103704721B1826842F00102B5
:1019F000826003E0826822F001028260704700008A
:101A00000021084A1168084A1140D0E900231A430E
:101A100083681A43C3681A431143044AC2F8041383
:101A20007047000004230140E030FCFF002001402B
:101A300030B50246002000235068104C20400D793C
:101A40000C6844EA05242043506090680C4C204008
:101A5000D1E903542C438D682C434D7944EA450465
:101A600020439060D06A20F470000C7D641EE4B2C4
:101A7000234340EA0350D06230BD0000FFFEFFFC6C
:101A8000FDF7FFC000B58DB00121022002F010FF6C
:101A90000121080202F02CFF03208DF830000B908A
:101AA00000208DF833000BA9164801F0A1FB01219D
:101AB000080202F02DFF00214FF4807002F028FF91
:101AC0000020099007904FF4403008904FF4706068
:101AD0000A9007A8FFF794FF00208DF809000590F1
:101AE000049002208DF81800002001908DF8080065
:101AF00001A90548FFF79CFF01210348FFF774FF88
:101B00000DB000BD000402400020014000BFFEE710
:101B100000B58BB00121402002F0CAFE0121480629
:101B200002F0D6FE0320099002208DF82800002044
:101B30008DF82A0003208DF8290001208DF82B0054
:101B400009A92E4801F054FB092200212B4801F07D
:101B500097FB09220121294801F092FB00208DF812
:101B60001E008DF81F008DF8200001208DF8210047
:101B700000208DF822008DF823008DF81A008DF8D2
:101B80001B0006208DF81C0001208DF81D000A2086
:101B9000ADF8180006A91A4800F0F7F900208DF8F2
:101BA00012008DF8130001208DF814000020ADF80C
:101BB0000800ADF80A00ADF80C00ADF80E00ADF865
:101BC000100001208DF8150002A800F0C1F80122D4
:101BD00002210B4800F0D0F914208DF804000420F5
:101BE0008DF8050000208DF8060001208DF8070013
:101BF00001A802F017FE0BB000BD00000018024063
:101C00000064004010B5002410A0FEF7F7FB02218D
:101C1000134800F021F9012816D1124A002110487A
:101C200000F03DFA00BF06E00E480B30015D0EA04B
:101C3000FEF7E4FB641C082CF6DB0DA0FEF7DEFBD0
:101C40000221074800F030F810BD000043414E313A
:101C500020496E746572727570742E0D0A00000052
:101C600000640040540600203078257820000000F1
:101C70000D0A000010B51021084800F0EDF8012809
:101C80000BD1074A0121054800F009FA0120054956
:101C900008701021014800F007F810BD00680040EE
:101CA000A01200200D010020B1F5007F3AD00FDC1A
:101CB000202928D006DC01291CD004291DD00829A0
:101CC00040D11DE0402921D0B1F5807F3AD126E0F6
:101CD000B1F5004F31D006DCB1F5806F25D0B1F5FC
:101CE000006F2FD124E0B1F5803F12D0B1F5003F55
:101CF00028D111E0154A826025E00822C26022E066
:101D00001022C2601FE0082202611CE01022026162
:101D100019E00822426016E01022426013E004221B
:101D2000426010E0042242600DE0042242600AE0BA
:101D3000002282610422426005E0002282610422C6
:101D4000426000E000BF00BF7047000001010100D9
:101D500010B50021837A012202FA03F13D4A12688C
:101D600042F001023B4B1A603A4A1C3212688A4325
:101D7000384B1C331A60027BCAB9364A0C321268DF
:101D80008A43344B0C331A604288C38842EA0343C7
:101D9000304A4032847A42F834300288838842EAFA
:101DA00003432C4A4032847A02EBC4025360027B24
:101DB000012A19D1274A0C3212680A43254B0C33E9
:101DC0001A604288038842EA0343224A4032847AF6
:101DD00042F83430C288838842EA03431D4A4032C5
:101DE000847A02EBC4025360C27A3AB9194A121DCE
:101DF00012688A43174B1B1D1A6006E0154A121D14
:101E000012680A43134B1B1D1A60028932B9114A2A
:101E1000143212688A430F4B14331A600289012A64
:101E200006D10C4A143212680A430A4B14331A6062
:101E3000427B012A06D1074A1C3212680A43054B2D
:101E40001C331A60034A126822F00102014B1A6027
:101E500010BD00000066004070B504460D46002627
:101E600060692840002871D0B5F5807F5CD010DC17
:101E7000082D35D006DC012D20D0022D24D0042DD4
:101E800072D127E0102D31D0202D35D0402D6BD1CF
:101E900038E0B5F5004F60D009DCB5F5007F49D0DA
:101EA000B5F5806F4CD0B5F5006F5DD14FE0B5F55D
:101EB000803F2DD0B5F5003F56D12FE0A0682D49C9
:101EC00000F048FA064651E0E068032100F042FACB
:101ED00006464BE0E068082100F03CFA064645E083
:101EE000E068102100F036FA06463FE02069032141
:101EF00000F030FA064639E02069082100F02AFA9D
:101F0000064633E02069102100F024FA06462DE051
:101F10006068082100F01EFA064627E0606810217C
:101F200000F018FA064621E0A069012100F012FA3B
:101F300006461BE0A069022100F00CFA064615E0F7
:101F4000A069042100F006FA06460FE00FE0A06940
:101F5000702100F0FFF9064608E06068042100F0F7
:101F6000F9F9064602E0FFE7002600BF00E0002680
:101F7000304670BD010101001AB143690B43436152
:101F800002E043698B434361704730B5024600204D
:101F90000023146824F002041460146844F001045F
:101FA000146000E05B1C546804F001041CB94FF697
:101FB000FF74A342F6D1546804F001040CB9002068
:101FC0006CE08C79012C04D1146844F08004146016
:101FD00003E0146824F080041460CC79012C04D14F
:101FE000146844F04004146003E0146824F04004D2
:101FF00014600C7A012C04D1146844F0200414609D
:1020000003E0146824F0200414604C7A012C04D1FD
:10201000146844F01004146003E0146824F0100401
:1020200014608C7A012C04D1146844F00804146004
:1020300003E0146824F008041460CC7A012C04D165
:10204000146844F00404146003E0146824F00404E9
:1020500014608C78A407CD7844EA05640D7944EACD
:1020600005444D7944EA05540D886D1E2C43D46116
:10207000146824F001041460002300E05B1C546821
:1020800004F001041CB14FF6FF74A342F6D154686A
:1020900004F001040CB1002000E0012030BD10B5B7
:1020A00000F5D87303EB01131B6803F004031372EC
:1020B000137A53B900F5D87303EB01131B6840F290
:1020C000FF7404EA5353136009E000F5D87303EB7F
:1020D00001131B686FF0604404EAD303536000F5FA
:1020E000D87303EB01131B6803F00203537200F56E
:1020F000D87303EB01135B6803F00F03937200F5D1
:10210000D87303EB01135B681B0AD37400F5D87313
:1021100003EB01139B68D37200F5D87303EB011333
:102120009B681C0A147300F5D87303EB01139B68BA
:102130001C0C547300F5D87303EB01139B681B0E42
:10214000937300F5D87303EB0113DB68D37300F5C9
:10215000D87303EB0113DB681C0A147400F5D87301
:1021600003EB0113DB681C0C547400F5D87303EB0C
:102170000113DB681B0E937421B9C36843F020037D
:10218000C36003E0036943F02003036110BD10B591
:1021900002460020936803F08063B3F1806F00D1A2
:1021A00010E0936803F00063B3F1006F01D10120E8
:1021B00008E0936803F08053B3F1805F01D10220FF
:1021C00000E00420042874D002F5C07303EB001370
:1021D0001B6803F0010402F5C07303EB00131C60DD
:1021E0000B7A7BB94B7A0C8843EA445302F5C074EE
:1021F00004EB00142468234302F5C07404EB0014BC
:10220000236010E00B7A4C6843EAC4034C7A234302
:1022100002F5C07404EB00142468234302F5C07473
:1022200004EB001423608B7A03F00F038B7202F52A
:10223000C07303EB00135B6823F00F0402F5C07357
:1022400003EB00135C6002F5C07303EB00135B68E3
:102250008C7A234302F5C07404EB001463608B7B1B
:102260001C064B7B44EA03440B7B44EA0323CC7AF1
:10227000234302F5C07404EB0014A3608B7C1C069E
:102280004B7C44EA03440B7C44EA0323CC7B23438A
:1022900002F5C07404EB0014E36002F5C07303EBB5
:1022A00000131B6843F0010402F5C07303EB001335
:1022B0001C6010BD10B50246002321B1012907D0D2
:1022C00002290FD109E090681D4C00EA04030BE0DD
:1022D00090681C4C00EA040306E090681A4C00EA7F
:1022E000040301E0002300BF00BF184C181BA342E9
:1022F00016D007DC83B16FF08060184470B10228FB
:1023000018D111E0B0F5007F10D0114C204448B135
:10231000B0F5003F0ED10BE002230DE000230BE0EF
:10232000002309E0002307E0012305E0012303E087
:10233000012301E0002300BF00BFD8B210BD0000A0
:10234000030000040003000800000310000100085F
:102350000001FFF70246002002EA01030BB1012051
:1023600000E00020704770B500254FF4803404E091
:10237000802002F00BFE00B103E0201EA4F1010456
:10238000F6D100BF0CB9032070BD40F2FF5002F03F
:10239000D3FD2846F8E7000070B5044605E016486E
:1023A000056805F0450000B100E0F8E700BF042033
:1023B00002F0ECFD20B1042002F0BEFD032070BD50
:1023C000012002F0E3FD20B1012002F0B5FD012063
:1023D000F5E7094824380068A04201D01020EEE754
:1023E00040F2FF5002F0A8FD0348203800680821A1
:1023F0000840C0B2E3E70000342C014070B500266D
:102400004FF4803505E01148046804F0450000B140
:1024100003E0281EA5F10105F5D100BF15B104F0B8
:10242000040028B10326042002F086FD304670BD6A
:10243000012002F0ABFD18B10126012002F07CFD65
:1024400040F2FF5002F078FD3046F0E7342C0140B6
:1024500010B505E00B48046804F0450000B100E049
:10246000F8E700BF042002F091FD20B1042002F043
:1024700063FD032010BD40F2FF5002F05DFD00201F
:10248000F8E70000342C01402DE9F04105460E46E6
:102490004FF0000805E02048076807F0450000B14C
:1024A00000E0F8E700BF042002F070FD28B104202E
:1024B00002F042FD0320BDE8F081012002F066FD3C
:1024C00020B1012002F038FD0120F4E71248243841
:1024D0000068A84201D01020EDE740F2FF5002F062
:1024E0002BFD0D482038046804F4604018B9200C16
:1024F00030804046DFE704F4005008B11320DAE7EB
:1025000004F4804008B11020D5E704F4004008B17D
:102510000F20D0E74046CEE7342C014070B50026AE
:102520004FF4803505E00F48046804F0450000B121
:1025300003E0281EA5F10105F5D100BF15B104F097
:10254000040028B10326042002F0F6FC304670BDDA
:1025500004F0400018B10026402002F0EDFC3046A7
:10256000F5E70000342C014021B1026842F001027D
:10257000026003E0026822F001020260704700007E
:10258000016821F00101016000210160416081606A
:10259000C1600161212141614A49884204D13D2144
:1025A000484A103A91608CE046491831884205D17A
:1025B0004FF47461434A103A916082E041493031EE
:1025C000884205D14FF474113E4A103A916078E088
:1025D0003C494831884205D14FF07461394A103A7C
:1025E00091606EE037496031884204D13649354AFE
:1025F000103AD16065E033497831884204D13349DB
:10260000304A103AD1605CE02E499031884204D1C2
:102610002F492C4A103AD16053E02A49A831884208
:1026200005D14FF03D51274A103AD16049E0294980
:10263000884204D13D21274A083A116041E02549EA
:102640001831884205D14FF47461224A083A11606A
:1026500037E020493031884205D14FF474111D4ACA
:10266000083A11602DE01B494831884205D14FF0EE
:102670007461184A083A116023E0164960318842B3
:1026800004D11149134A121F11601AE0114978311F
:10269000884204D10D490F4A121F116011E00D4903
:1026A0009031884204D10A490A4A121F116008E099
:1026B0000849A831884204D14FF03D51054A121F04
:1026C00011607047106002403D000020400F002064
:1026D00000003D201064024021B1026842F0200257
:1026E000026003E0026822F02002026070470146A7
:1026F00000200A6802F001020AB1012000E0002077
:102700007047000010B500220268134B1A40CC68D5
:102710000B6823434C6923438C692343CC692343CF
:102720000C6A23434C6A23438C6A23434C6B234338
:102730008C6B23431A430260426922F00702D1E9FD
:102740000B3423431A4342610B6943604B68836037
:102750008B68C36010BD00003F801CF02DE9F04F76
:102760002DED028B85B0002700250026A846A9463E
:10277000AA46AB460020049003900290F42108F092
:102780001DFA0746F421002008F018FA0546F42146
:10279000002008F013FA8146F421002008F00EFA18
:1027A0008246F421002008F009FA8346F421002033
:1027B00008F004FA0490F421002008F0FFF90390D7
:1027C000F421002008F0FAF90646F421002008F070
:1027D000F5F980468FB185B1B9F1000F0DD0BAF18E
:1027E000000F0AD0BBF1000F07D0049828B103985E
:1027F00018B116B1B8F1000F07D17BA0FDF7FEFDAF
:1028000005B0BDEC028BBDE8F08FF4213846FEF731
:102810003DF8F4212846FEF739F8F4214846FEF742
:1028200035F8F4215046FEF731F8F4215846FEF70A
:102830002DF8F4210498FEF729F8F4210398FEF707
:1028400025F8F4213046FEF721F8002421E0F42198
:102850004046FEF71BF8684800EB840090ED000A44
:1028600010EE101A08460CF0F3FE41EC180B8DED3B
:10287000008B621C61494046FDF7CCFD1CB160A194
:102880003046FDF778FF41463046FDF774FF601C87
:1028900084B2032CDBDB32465A494846FDF7BAFDC9
:1028A000594890ED000A10EE100A0CF0D1FE41ECF0
:1028B000180B53EC182B55495046FDF7ABFD544807
:1028C00090ED000A10EE100A0CF0C2FE41EC180B5D
:1028D00053EC182B4F495846FDF79CFDF421404618
:1028E000FDF7D4FFF4213046FDF7D0FF4A4890EDC4
:1028F000000A10EE100A0CF0ABFE41EC180B8DED47
:10290000008B01223D494046FDF784FD414630469B
:10291000FDF731FFF4214046FDF7B8FF3F4890ED49
:10292000000A10EE100A0CF093FE41EC180B8DED2E
:10293000008B022231494046FDF76CFD30A1304644
:10294000FDF719FF41463046FDF715FF3246344981
:102950000498FDF75FFD49462846FDF70CFF5146F8
:102960002846FDF708FF59462846FDF704FF28468C
:102970000499FDF700FF2B462A482B490268384688
:10298000FDF748FD3846FDF7D7FEC0B20290384645
:10299000FDF734FD3846029902F0B8F839460020B8
:1029A00008F0FAF82946002008F0F6F83146002031
:1029B00008F0F2F84146002008F0EEF84946002001
:1029C00008F0EAF85146002008F0E6F859460020E1
:1029D00008F0E2F80020049908F0DEF800200399DE
:1029E00008F0DAF800BF0BE7C9EAC7EBC4DAB4E6CF
:1029F000CAA7B0DC000000009411002058F80008BD
:102A00002C00000095F80008CC000020A2F8000877
:102A1000F4000020AEF80008E0000020E4000020F0
:102A2000BBF8000878000020F5F700082DE9F04F0A
:102A30002DED028B83B083460F4692464FF000087F
:102A400000250026A94600200290F42108F0B6F8DF
:102A50008046F421002008F0B1F80546F42100205A
:102A600008F0ACF80646F421002008F0A7F88146EB
:102A7000B8F1000F04D01DB116B1B9F1000F07D1A4
:102A800038A0FDF7BBFC03B0BDEC028BBDE8F08FB6
:102A9000F4214046FDF7FAFEF4212846FDF7F6FE44
:102AA000F4213046FDF7F2FE3C4630E0F421484682
:102AB000FDF7ECFE03202F4921F814009FED2E0AAC
:102AC0002E4800EB840080ED000A2C4800EB8400C7
:102AD00090ED000A10EE101A08460CF0B9FD41EC1A
:102AE000180B8DED008B234830F81430621C2449FC
:102AF0004846FDF78FFCBC4203D022A13046FDF7CB
:102B00003AFE49463046FDF736FE601C84B2544515
:102B1000CCDB32461C492846FDF77CFC2B465A4646
:102B20001A494046FDF776FC4046FDF705FEC0B267
:102B300002904046FDF762FC4046029901F0E6FF34
:102B40004146002008F028F82946002008F024F823
:102B50003146002008F020F84946002008F01CF813
:102B600000BF90E7C9EAC7EBC4DAB4E6CAA7B0DC95
:102B7000000000003C0A00200000BC411C0C0020AA
:102B80001FF800082C0000006DF80008CBF70008C3
:102B90002DE9FF4F2DED028B81B083468A46174603
:102BA0004FF0000800250026A94600200090F421DF
:102BB00008F004F88046F421002007F0FFFF0546E6
:102BC000F421002007F0FAFF0646F421002007F068
:102BD000F5FF8146B8F1000F04D01DB116B1B9F16F
:102BE000000F07D139A0FDF709FC01B0BDEC028B45
:102BF000BDE8FF8FF4214046FDF748FEF42128464A
:102C0000FDF744FEF4213046FDF740FE3C4617E058
:102C1000F4214846FDF73AFE304830F81430621C83
:102C20002F494846FDF7F6FBBC4203D02DA13046A4
:102C3000FDF7A1FD49463046FDF79DFD601C84B2BD
:102C400006988442E4DB324627492846FDF7E2FB3A
:102C5000F4213046FDF71AFE244800EB8A0090ED7F
:102C6000000A10EE101A08460CF0F2FC41EC180BAA
:102C700053EC182B1E493046FDF7CCFB3146284655
:102C8000FDF779FD2B465A461A494046FDF7C2FB2F
:102C90004046FDF751FDC0B200904046FDF7AEFB47
:102CA0004046009901F032FF4146002007F074FFD2
:102CB0002946002007F070FF3146002007F06CFF26
:102CC0004946002007F068FF00BF8EE7C9EAC7EB5E
:102CD000C4DAB4E6CAA7B0DC00000000441100204A
:102CE00058F800082C00000087F800088011002028
:102CF000AEF80008CBF700082DE9F04F2DED028B60
:102D000083B083460F4692464FF000080025002608
:102D1000A94600200290F42107F050FF8046F421DC
:102D2000002007F04BFF0546F421002007F046FF86
:102D30000646F421002007F041FF8146B8F1000F5C
:102D400004D01DB116B1B9F1000F07D135A0FDF7C0
:102D500055FB03B0BDEC028BBDE8F08FF42140467B
:102D6000FDF794FDF4212846FDF790FDF42130464F
:102D7000FDF78CFD3C4629E0F4214846FDF786FD31
:102D80009FED2C0A2C4800EB840080ED000A2A48B5
:102D900000EB840090ED000A10EE101A08460CF0CB
:102DA00057FC41EC180B8DED008B621C2349484603
:102DB000FDF730FBBC4203D021A13046FDF7DBFC20
:102DC00049463046FDF7D7FC601C84B25445D3DB3E
:102DD00032461C492846FDF71DFB2B465A461A4928
:102DE0004046FDF717FB4046FDF7A6FCC0B2029037
:102DF0004046FDF703FB4046029901F087FE41463D
:102E0000002007F0C9FE2946002007F0C5FE314624
:102E1000002007F0C1FE4946002007F0BDFE00BFBC
:102E200097E70000C9EAC7EBC4DAB4E6CAA7B0DC8A
:102E300000000000666692415410002041F800082E
:102E40002C0000007AF80008CBF700080320214985
:102E5000488008809FED200A204880ED010A80ED1F
:102E6000000A36E000240EE0631C03EB43031B075B
:102E70001A0E04EB44031B07190E194B185DFFF7DC
:102E8000D5FD601CC4B2174800788442ECDB0222F6
:102E900000210120FFF7CAFD40F6B8300BF002F91F
:102EA000022200210120FFF727FF40F6B8300BF087
:102EB000F9F80223002211460120FFF769FE40F6CF
:102EC000B8300BF0EFF8FFF749FC42F210700BF04E
:102ED000E9F8C7E73C0A0020CDCC3A421C0C0020A0
:102EE00082000020910000207047000000B58BB0E8
:102EF0000121022001F0DCFC0121880601F0E8FC40
:102F00004FF44050099002208DF8280000208DF8E1
:102F10002A0003208DF8290001208DF82B0009A933
:102F20002E4800F065F909220C212C4800F0A8F980
:102F300009220D21294800F0A3F900208DF81E0078
:102F40008DF81F008DF8200001208DF82100002051
:102F50008DF822008DF823008DF81A008DF81B00E3
:102F600006208DF81C0001208DF81D000A20ADF808
:102F7000180006A91A48FFF708F80E208DF812006D
:102F800000208DF8130001208DF814000020ADF80A
:102F90000800ADF80A00ADF80C00ADF80E000120F5
:102FA000ADF810008DF8150002A8FEF7D1FE012241
:102FB00010210B48FEF7E0FF41208DF804000320AC
:102FC0008DF8050000208DF8060001208DF807001F
:102FD00001A801F027FC0BB000BD00000004024076
:102FE000006800402DE9F04385B0074688469146C9
:102FF0001D460097CDF8048004208DF808000020BD
:103000008DF809008DF80A50002406E019F8041024
:103010000DF10B000155601C84B2AC42F6DB694631
:103020000D48FFF7B4F80646002401E0601C84B2A6
:1030300031460948FFF73EF918B940F6FF7084425F
:10304000F4DB40F6FF70844203DB012005B0BDE8ED
:10305000F0830020FAE70000006800402DE9FC4101
:1030600007460D460026002400200090019008200D
:103070005B49086010204860402088600020C860DC
:103080004FF480600861084601F0CCFF1020FFF784
:1030900083F9044614B12046BDE8FC8151480088FC
:1030A00000044F49086037204860402088600020B5
:1030B000C8604FF480600861084601F0B3FF372014
:1030C000FFF76AF904460CB12046E5E74FF0FF3000
:1030D0004549086008204860302088600220C860A8
:1030E0000020086101204861084601F035FF0020FA
:1030F0003B49086033204860402088600020C86059
:103100004FF480600861084601F08CFF3320FFF720
:1031100043F904460CB12046BEE70CE04FF4001022
:1031200001F034FF38B1314800684DF82600761CB4
:10313000022E00D307E02D484C38006840F22A6187
:1031400008400028EAD000BF082001F01FFF20B18E
:10315000082001F0F1FE04209EE7022001F016FF96
:1031600020B1022001F0E8FE022095E7202001F0C6
:103170000DFF20B1202001F0DFFE06208CE74FF488
:10318000007001F003FF28B14FF4007001F0D4FE8D
:10319000072081E740F2FF5001F0CEFE00980006C4
:1031A000009901F47F4140EA0120009901F47F0178
:1031B00040EA1120009940EA116068600198000619
:1031C000019901F47F4140EA0120019901F47F0156
:1031D00040EA1120019940EA1160286020465BE72F
:1031E000D012002058020020E4120020802C014060
:1031F000F0B50A4600210023002400BF3DE0012570
:1032000005FA01F3156805EA03049C4234D1056808
:103210004F000326BE40B543056015794E00B5400A
:103220000668354305601579012D02D01579022D08
:1032300016D185684F000326BE40B5438560557999
:103240004E00B540866835438560456801268E404E
:10325000B5434560456896798E40B6B235434560C2
:10326000C5684F000326BE40B543C560D5794E0002
:10327000B540C6683543C560491C1029BFD3F0BDB1
:10328000F0B5002300244D07ED0E02FA05F3CE1031
:1032900000F1200555F826504E07F70E0F26BE40C8
:1032A000B543CF1000F1200646F82750CE1000F1AC
:1032B000200555F8265045EA0304CE1000F12005FC
:1032C00045F82640F0BD418370470183704742694D
:1032D0004A40426170470000014800787047000092
:1032E0000D0100202DE9F04705460E461746984689
:1032F000DDF82090002444EA090444EA082444EA62
:10330000074444EA8664214602A0FDF777F82C6062
:10331000BDE8F087B7A2CBCD50474E3A25780D0ACD
:1033200000000000F0B50446DDE9055600203043FA
:1033300040EA052040EA034040EA8260C0F3D1271A
:103340002760C0F30A070F60F0BD00BFFEE7000072
:103350001CB50121022001F0ABFA0121202001F06F
:10336000A7FA0121402001F0A3FA4FF44F4000904A
:1033700001208DF8040000208DF8060003208DF850
:10338000050001208DF8070069460F48FFF730FF60
:103390004FF44F410C48FFF798FF03200090694617
:1033A0000A48FFF725FF03210848FFF78EFF4FF477
:1033B0004050009069460648FFF71AFF4FF440510D
:1033C0000348FFF782FF1CBD0004024000140240C6
:1033D0000018024070B504460D46002C04DD0D2C8B
:1033E00002DA1DB1012D01D0002070BD95B9082C65
:1033F00007DA4FF48070A04081B21148FFF763FFF5
:103400001BE0A4F108000422824091B20D48FFF7AE
:103410005AFF12E0012D10D1082C06DA2802A04034
:1034200081B20748FFF751FF07E0A4F1080004222A
:10343000824091B20348FFF748FF0120D5E7000022
:1034400000100240001802401CB50121102001F0BC
:103450002FFA0121402001F02BFA4FF47E4000901A
:1034600001208DF8040000208DF8060003208DF85F
:10347000050001208DF8070069463448FFF7B8FEC3
:103480007C20009001208DF8040000208DF80600BB
:1034900003208DF8050001208DF8070069462C48AF
:1034A000FFF7A6FE4FF400712848FFF70CFF4FF41A
:1034B00080612648FFF707FF4FF400612348FFF7BC
:1034C00002FF4FF480512148FFF7FDFE4FF40051F9
:1034D0001E48FFF7F8FE4FF480411C48FFF7F3FE4B
:1034E0004FF400411948FFF7EEFE04211848FFF79A
:1034F000EAFE08211648FFF7E6FE10211448FFF700
:10350000E2FE20211248FFF7DEFE40211048FFF7BF
:10351000DAFE0121082001F0CBF94FF400400090C1
:1035200001208DF8040000208DF8060003208DF89E
:10353000050001208DF8070069460648FFF758FE90
:103540004FF400410348FFF7BEFE1CBD00100240CF
:1035500000180240000C02401CB5044600200190F7
:103560000090224800880004214908600D2048602E
:10357000402088600020C8604FF4806008610846E1
:1035800001F050FD1B480068009002E019480068F7
:103590000090009800F045000028F7D0012001F0CD
:1035A000F5FC20B1012001F0C7FC01201CBD042066
:1035B00001F0ECFC20B1042001F0BEFC0320F5E793
:1035C0000C48243800680D2801D01020EEE740F2A6
:1035D000FF5001F0B1FC07482038006801900198C5
:1035E000C0F3432020700020E0E7000058020020D4
:1035F000D0120020342C014000B58FB000200E9076
:103600001422FC4909A8FDF707F90A980890FAA0C6
:103610000899FCF7F3FE0898C0F31120079007986B
:10362000C0F3072006900698EC2871D109A8407CC9
:10363000009009A8407B059009A8007B04909DF8A4
:103640002F0003900146F0A0DDE90423FCF7D6FE2D
:103650009DF82F00112841F0D48009A8007B049028
:1036600009A8407B039009A8407C0290049808B9FF
:103670000FB000BDEF48007810BB029806281FD19C
:103680000020059017E0059903980844C0B2019006
:1036900008F0EAF90A200AF005FD059903980844A4
:1036A000C0B2019008F0E0F90A200AF0FBFC05988E
:1036B000401CC0B20590DDE904108842E3DB24E041
:1036C000DC48007808BB029811281ED10020059024
:1036D00017E0059903980844C0B2019008F0BEFABB
:1036E0000A200AF0DFFC059903980844C0B2019053
:1036F00008F0B4FA0A200AF0D5FC0598401CC0B2C4
:103700000590DDE904108842E3DB01F07AB8FFE7B9
:10371000C8480078002837D10698262834D1C6A09A
:10372000FCF76CFEC7480068C7490968401A0528BD
:1037300014D90020C5490870C5490870C5490870EA
:10374000C5490870C5490870C5490870C549087061
:10375000C5490870C5490870C5490870C448007853
:103760000028D2D1C3A0FCF749FEB6480068B6498C
:103770000860C548022100238022CDE90010C3A1C2
:10378000C6480BF0F1F9C0E7AA48007800287DD1BF
:1037900006980128FBD19DF82F0001460590C0A096
:1037A000FCF72CFEB248007830B10020B049087018
:1037B000B54800680AF0A4FC9DF82F00002837D116
:1037C000AA480078002833D19E4800689E490968BD
:1037D000401A05281AD99C4802689A480168BAA07C
:1037E000FCF70CFE002000900190034602460146C3
:1037F0000290012009F07AF8BA48022100238022C1
:10380000CDE90010B8A1BC480BF0AEF9BBA0FCF7A5
:10381000F5FD8C480068BD490860BD4802210023C1
:103820008022CDE90010BBA1BE480BF09DF96CE7EA
:103830009DF82F00AA28A6D1BBA0FCF7DFFD814888
:103840000068B2490968401A052819D9AF480268CA
:103850007C480168BCA0FCF7D1FD002000900190DD
:10386000034602460121029009F040F89D480221DA
:1038700000238022CDE900109BA19F480BF074F932
:103880007A48007840B10020784900E01AE00870DA
:103890009F4800680AF034FC734800780028C6D1BD
:1038A000B0A0FCF7ABFD67480068B2490860B248B9
:1038B000022100238022CDE90010B0A1B3480BF013
:1038C00053F922E75B48007830B90698072803D1FE
:1038D000AFA0FCF793FD18E756480078002849D1BF
:1038E0000698082846D1ADA0FCF788FD5E48007810
:1038F00000B3544800689F490968401A052819D93F
:103900009C4802684F480168A7A0FCF777FD00209B
:1039100000900190034601220146029008F0E6FF64
:103920007048022100238022CDE900106EA1724868
:103930000BF01AF94C48007830B100204A49087061
:103940008D4800680AF0DCFB464800780028B8D1B2
:103950003C4800689A4908609AA0FCF74FFD9C48D3
:10396000022100238022CDE900109AA19D480BF08E
:10397000FBF8CAE62F48007800283AD106980A28B2
:10398000FBD19DF82F000146059097A0FCF736FD6E
:103990009DF82F00059009F013F832480078C8B15F
:1039A0002848006886490968401A052812D900206D
:1039B00000900190012302460146029008F096FF14
:1039C0004848022100238022CDE9001046A14A4840
:1039D0000BF0CAF82348007830B100202149087064
:1039E0007B4800680AF08CFB83480078AA28C0D185
:1039F00004E199E1A0120020CAD5B5BD50474E3A66
:103A000025780D0A00000000CAD5B5BDB6E0D6A1E4
:103A1000206F726465722D256420636E742D256499
:103A2000206E756D2D256420706172616D2D256489
:103A3000000000000C010020CAD5B5BD43484D0D63
:103A40000A000000D400002064010020950100203D
:103A50009401002093010020920100209101002098
:103A6000900100208F0100208E0100208D01002098
:103A70008C010020B4B4BDA842484DC8CECEF1217F
:103A800021210D0A000000009801002073656E647A
:103A90005F42484D5F7461736B0000007DBE00089B
:103AA000CAD5B5BD43524DA3A1A3A1A3A1A3A1A370
:103AB000A1A3A1A3A1A3A1A3A1A3A1A3A1A3A1A1E8
:103AC000BE2578A1BF0D0A00B5C8B4FD43524D2DE7
:103AD00030783030B3ACCAB1202025642020256472
:103AE00000000000C001002073656E645F42454D18
:103AF0005F7461736B000000C5BD0008B4B4BDA85D
:103B000042524DC8CECEF10D0A00000068010020DF
:103B10009C01002073656E645F42524D5F74617357
:103B20006B00000041BF0008BDE1CAF8CED5CAD67F
:103B3000CAB6B1F0BDD7B6CEA3ACD3A6B5B1B7A2C5
:103B4000CBCD4243500D0A00B5C8B4FD43524D2DB4
:103B500030784141B3ACCAB12020256420202564CF
:103B600000000000B4B4BDA8424350C8CECEF10D51
:103B70000A0000006C010020A001002073656E6443
:103B80005F4243505F7461736B00000079BB0008B3
:103B9000CAD5B5BD4354530D0A000000CAD5B5BD02
:103BA000434D4C0D0A000000B5C8B4FD434D4CB365
:103BB000ACCAB12020202564202025640D0A000015
:103BC00070010020B4B4BDA842524FC8CECEF1005F
:103BD000A401002073656E645F42524F5F7461738D
:103BE0006B0000003DC00008CAD5B5BD43524F3A36
:103BF00025780D0A00000000E8010020F9A0FCF77C
:103C0000FDFBFE48007858BB00200E90FC49087070
:103C1000FC490880FC4908800520FC49088041F2E5
:103C20000140FB4908800120FA4908704C20FA49FC
:103C300008700120F94908704120F94908700220F4
:103C4000F84908700020F8490870F8490870F849E8
:103C50000870F8490870F8490870F84908701DE0C4
:103C6000F7480068F7490968411A0E9808440E9011
:103C7000F5480088E4490880F4480088E149088054
:103C800003210E98B0FBF1F0DD4908700E98C0F5E5
:103C900016703C21B0FBF1F0DC490880E848006870
:103CA000E8490860D548007860B9E9A0FCF7A6FBB0
:103CB000EB48022100238022CDE90010E9A1ED4864
:103CC0000AF052FFEC48007860B9ECA0FCF796FBD4
:103CD000EE48022100238022CDE90010ECA1F0483B
:103CE0000AF042FFEF48007860B9EFA0FCF786FBCE
:103CF000F248022100238022CDE90010F0A1F4480F
:103D00000AF032FFF348007800287DD1F2A0FCF7DA
:103D100075FBF548022100238022CDE90010F3A1B4
:103D2000F6480AF021FFF0E4F548007870BB0698E9
:103D300012282BD1F3A0FCF761FBC1480068C149F0
:103D4000086009A8C17B007C41EA0020049009A812
:103D5000417B807B41EA002003909DF82F1009A849
:103D6000007B41EA0020029009A8407C03460590B0
:103D700002A807C808F0E8FDE9480388B3480288AC
:103D8000B1480188E7A0FCF739FBBEE4DC480078C5
:103D9000002869D106981A2866D1EBA0FCF72EFB03
:103DA00009A8017B407B41EA0020049009A8807BA0
:103DB00005909DF82F000390DDE9041208F014FE31
:103DC000E4480378E4480288E4480178E4A0FCF77A
:103DD00015FB8A48007830B1002088490870A04857
:103DE00000680AF08DF9A448007830B10020A2499B
:103DF0000870A64800680AF083F9AA48007840B124
:103E00000020A849087000E0A5E2AC4800680AF06C
:103E100077F9B048007830B10020AE490870B24858
:103E200000680AF06DF9D648007870B90022114692
:103E3000402008F07BFDD348022100238022CDE9F9
:103E40000010D1A1D4480AF08FFED4480078002891
:103E50009BD1D348022100238022CDE90010D1A1BB
:103E6000D4480AF081FE50E4A548007828BB0698A3
:103E70001D2822D1D0A0FCF7C1FA09A8C17B007C83
:103E800041EA002109A8407C41EA004109A8807C60
:103E900041EA0060059009A8417B807B41EA00204F
:103EA00004909DF82F1009A8007B41EA00200390A0
:103EB000DDE9041208F08AFD27E491480078002823
:103EC00043D006981F2840D1BEA0FCF797FA9DF872
:103ED0002F0001460590C3A0FCF790FA09A8007BCB
:103EE00000F0030001460590C5A0FCF787FA09A879
:103EF000007BC0F3810001460590CAA0FCF77EFA62
:103F000009A8407B00F0030001460590CFA0FCF714
:103F100075FA09A8407BC0F3810001460590D5A041
:103F2000FCF76CFA09A8407BC0F30110014605902C
:103F3000D9A0FCF763FA09A8807B00F003000146D2
:103F40000590DEA0FCF75AFA05E26D48007818B338
:103F50000698272820D1E248007830B10020E049B7
:103F60000870E04800680AF0CBF8DF4800780028C5
:103F7000A2D106F025FDDD4908600021084608F0C1
:103F800015FDDB48022100238022CDE90010D9A1D4
:103F9000DC480AF0E9FDDEE159480078F8B10698FE
:103FA00002281CD1D0480078D0B106F009FDCF49D5
:103FB0000968401A41F28831884211D900200090E6
:103FC00001900346024601460290012008F0CEFC13
:103FD000CD48022100238022CDE9001096E1BBE10B
:103FE00098E10000B8FCD0C2B3E4B5E7B9FDB3CCAA
:103FF000D6D0B2CECAFD0D0A00000000900100200C
:104000003A01002034010020320100203801002054
:10401000360100203B0100203C0100203D01002032
:104020003E0100203F010020450100204401002006
:1040300043010020420100204101002040010020F6
:10404000D40000207C010020EA010020EC010020C7
:10405000B4B4BDA842434CC8CECEF10D0A00000056
:10406000A801002073656E645F42434C5F74617306
:104070006B000000E5B9000891010020B4B4BDA8B0
:10408000424353C8CECEF10D0A000000AC0100201F
:1040900073656E645F4243535F7461736B0000002D
:1040A00041BD000892010020B4B4BDA8434353BCF5
:1040B000E0CCFDC8CECEF10D0A000000B00100201A
:1040C000636865636B5F4343535F7461736B0000A8
:1040D0009D71000893010020B4B4BDA842534DC89F
:1040E000CECEF10D0A000000B401002073656E64AD
:1040F0005F42534D5F7461736B000000B9C10008EB
:104100000C010020CAD5B5BD434353A3ACC8B7C802
:10411000CFB3E4B5E7BBFAD7B4CCAC0D0A000000CE
:10412000EE010020B5E7D1B9CAE4B3F6256420B5A5
:10413000E7C1F7CAE4B3F6256420C0DBBCC6B3E42C
:10414000B5E725640D0A0000CAD5B5BD4353540D2B
:104150000A000000F2010020F4010020F10100201B
:10416000CAD5B5BD435354A3ACD6D0D6B9B3E4B584
:10417000E7A3BA25782025782025780D0A000000CD
:1041800094010020B801002073656E645F425354AF
:104190005F7461736B00000091C2000895010020FC
:1041A000BC01002073656E645F4253445F746173A9
:1041B0006B00000005C10008CAD5B5BD4353440DCE
:1041C0000A000000CAD5B5BDC0B4D7D4B3E4B5E782
:1041D000BBFAB5C4B4EDCEF3D0C5CFA2A3A10D0AEE
:1041E00000000000B1E6CAB6B9FDB3CCB3ACCAB1A9
:1041F0003A64617461333932312C2025780D0A001C
:10420000BDD3CAD5B3E4B5E7B2CECAFDB1A8CEC41A
:10421000B3ACCAB13A64617461333932322C2025AF
:10422000780D0A00BDD3CAD5CDEAB3C9B3E4B5E76A
:10423000D7BCB1B8B1A8CEC4B3ACCAB13A6461744A
:1042400061333932332C2025780D0A00BDD3CAD50D
:10425000B3E4B5E7D7DCD7B4CCACB1A8CEC4B3AC2B
:10426000CAB13A64617461333932342C2025780D37
:104270000A000000BDD3CAD5B3E4B5E7D2AAC7F39C
:10428000B1A8CEC4B3ACCAB13A64617461333932F7
:10429000352C2025780D0A00BDD3CAD5D6D0D6B985
:1042A000B3E4B5E7B1A8CEC4B3ACCAB13A646174A3
:1042B00061333932362C2025780D0A00BDD3CAD59A
:1042C000B3E4B5E7CDB3BCC6B1A8CEC4B3ACCAB1F4
:1042D0003A64617461333932372C2025780D0A0035
:1042E0004C020020080200204D0200203002002075
:1042F0000C02002073656E645F43524D5F746173FE
:104300006B000000DDC5000828020020FAA1FE486D
:104310000AF02AFCFD48007830B10020FB49087003
:10432000FB48006809F0ECFEF8480078002812D13C
:1043300006F046FBF74908600021AA2008F036FB8A
:10434000F348022100238022CDE90010AFF25C0186
:10435000F1480AF009FC54E2F0480078F0B30698FE
:1043600006283CD1E9480078D8B106F029FBE94994
:104370000968401A41F28831884212D90020009021
:104380000190034602460121029008F0EFFAE4484A
:10439000022100238022CDE90010D7A1DA480AF0DB
:1043A000E3FBDA48007830B10020D8490870D848DB
:1043B000006809F0A5FEDB4800780028CBD106F0A4
:1043C000FFFAD9490860D948022100238022CDE9AB
:1043D0000010D7A1DA480AF0C7FB12E2FFE7CF4886
:1043E0000078D0B3069809283DD1CE480078D8B1DE
:1043F00006F0E6FACC490968401A41F28831884251
:1044000012D900200090019003460122014602903B
:1044100008F0ACFAC248022100238022CDE9001046
:10442000B5A1B9480AF0A0FBBE48007830B1002021
:10443000BC490870BD48006809F062FEC1480078B8
:10444000002888D106F0BCFABF490860BF480221A5
:1044500000238022CDE9001000E004E0BCA1C048A8
:104460000AF082FBCDE1AD48007820B30698102811
:1044700021D1B44800780028AFD006F0A1FAB249A3
:104480000968401A41F288318842A6D900200122E9
:10449000CDE90020034602460146029008F066FA84
:1044A0009F48022100238022CDE9001092A1964866
:1044B0000AF05AFBA5E199480078E8B3069811285C
:1044C00065D1A0480078D8B106F07AFA9E4909680B
:1044D000401A41F28831884212D9002000900190A0
:1044E000012302460146029008F040FA8C4802215E
:1044F00000238022CDE900107FA183480AF034FB1D
:1045000098480078E0B106F05BFA97490968401ACC
:10451000B0F57A7F14D90020009001900123024663
:104520000146029008F022FA7D48022100238022F1
:10453000CDE9001070A100E029E073480AF014FBF7
:104540008048007830B100207E4908707F480068BC
:1045500009F0D6FD8348007830B100208149087009
:104560008248006809F0CCFD7E4800780028A1D17F
:1045700006F026FA7C4908607C480221002380224C
:10458000CDE900107AA17E480AF0EEFA39E16348DD
:10459000007810B1069813288CD060480078E0B3FA
:1045A000069819285AD16F48007830B100206D491B
:1045B00008706E48006809F0A3FD72480078E0B109
:1045C00006F0FEF970490968401A41F288318842C4
:1045D00013D900200121CDE900010346024601461E
:1045E000029008F0C3F94E48022100238022CDE951
:1045F000001041A144480AF0B7FA6248007880B937
:1046000006F0DEF96049086060480221002380223C
:10461000CDE900105EA1624800E01FE00AF0A4FAB4
:10462000EFE058480078002817D05E48007800284E
:1046300013D1544908705548006809F061FD06F02F
:10464000BFF9594908605948022100238022CDE969
:10465000001057A15A480AF087FAD2E02F48007894
:10466000E8B306981C283AD146480078E0B106F035
:10467000A7F945490968401A41F28831884213D99F
:1046800000200121CDE900010346024601460290C7
:1046900008F06CF92248022100238022CDE90010A5
:1046A00015A119480AF060FA3E480078F0B106F00A
:1046B00087F93D490968401A41F28831884215D985
:1046C0000120002100910B460A46CDE90110084661
:1046D00008F04CF9124802210023802200E090E00B
:1046E000CDE9001004A108480AF03EFA25480078F8
:1046F00000B167E06DE0000073656E645F43454D97
:104700005F7461736B00000029C400084D02002033
:104710000C02002030020020DDC500080C01002042
:10472000280200204F02002038020020140200203E
:1047300073656E645F434D4C5F7461736B00000082
:10474000DDC40008500200203C02002018020020B6
:1047500073656E645F43524F5F7461736B0000005A
:10476000E1C6000851020020400200201C02002087
:1047700073656E645F4343535F7461736B00000045
:1047800031C3000852020020440200202002002011
:1047900073656E645F4353545F7461736B00000014
:1047A00015C80008530200204802002024020020FF
:1047B00073656E645F4353445F7461736B00000004
:1047C0005DC700080020104908701048006809F013
:1047D00097FC0F48007830B100200D4908700D4853
:1047E000006809F08DFC0A48007850B90948022198
:1047F00000238022CDE90010AFF24C0106480AF0F8
:10480000B3F900BFFEF734BF52020020200200209F
:1048100053020020240200205DC7000800BFFEE70D
:104820007047000070B5002100230F22C4781CB32C
:10483000174C246804F4E064C4F5E064C4F3072171
:10484000C1F10404E3B20A4144789C40E1B28478A7
:10485000144021430C07210E0E4C05786155047855
:1048600004F01F050124AC4005786D11AD0005F181
:10487000E025C5F8004109E0047804F01F05012493
:10488000AC40054D0678761145F8264070BD000015
:104890000CED00E000E400E080E100E002490143AB
:1048A000024A1160704700000000FA050CED00E0BC
:1048B00029B1064A12680243044B1A6004E0034A15
:1048C00012688243014B1A60704700003038024082
:1048D00029B1064A12680243044B1A6004E0034AF5
:1048E00012688243014B1A60704700004038024052
:1048F00029B1064A12680243044B1A6004E0034AD5
:1049000012688243014B1A6070470000443802402D
:1049100029B1064A12680243044B1A6004E0034AB4
:1049200012688243014B1A6070470000243802402D
:10493000F0B5002100220024022500260223324F78
:104940003F6807F00C0121B1042905D0082937D1AF
:1049500005E02E4F076036E02D4F076033E02A4F09
:104960003F1F3F68C7F38056274F3F1F3F6807F040
:104970003F036EB1264FB7FBF3F7DFF88CC0ACF105
:10498000040CDCF800C0CCF3881C07FB0CF40CE032
:104990001E4FB7FBF3F7DFF870C0ACF1040CDCF886
:1049A00000C0CCF3881C07FB0CF4174F3F1F3F6877
:1049B000C7F301477F1C7D00B4FBF5F7076002E0F9
:1049C000124F076000BF00BF0F4F3F6807F0F001B4
:1049D0000909104F7A5C0768D74047600A4F3F6863
:1049E00007F4E051890A0B4F7A5C4768D74087602B
:1049F000054F3F6807F46041490B064F7A5C4768F2
:104A0000D740C760F0BD0000083802400024F40021
:104A100000127A003400002010B588B0044601214D
:104A20000846FFF745FF01211020FFF761FF012134
:104A30004020FFF73DFF072209213048FEF720FC08
:104A400007220A212D48FEF71BFC4FF4C060069098
:104A500002208DF81C008DF81D0000208DF81E002E
:104A600001208DF81F0006A92448FEF7C1FB02941F
:104A70000020ADF80C00ADF80E00ADF81000ADF858
:104A800014000C20ADF8120002A91D4802F0F0FA43
:104A900001211B4802F083FA012240F225511848F7
:104AA00002F0C0FA25208DF8040006208DF80500DC
:104AB00000208DF8060001208DF8070001A8FFF7FF
:104AC000B1FE4FF48060069001208DF81C0000209C
:104AD0008DF81E0003208DF81D0001208DF81F00A9
:104AE00006A90848FEF784FB4FF480610548FEF7ED
:104AF000ECFB00200449087008B010BD0000024023
:104B000000100140001802400801002070B5054661
:104B10000E4600244FF480610F48FEF7D4FB00BF1F
:104B20000CE000BF40210D4802F045FA0128F9D100
:104B3000295D0A4802F00BFB601CC4B2B442F0DBF2
:104B400000BF4021054802F036FA0128F9D1810260
:104B50000148FEF7BAFB70BD00180240001001408A
:104B600010B588B0044601210846FFF7A1FE0121D7
:104B70004804FFF7ADFE01210820FFF799FE072248
:104B800002212F48FEF77CFB072203212C48FEF769
:104B900077FB0C20069002208DF81C008DF81D007C
:104BA00000208DF81E0001208DF81F0006A9244862
:104BB000FEF71EFB02940020ADF80C00ADF80E00CD
:104BC000ADF81000ADF814000C20ADF8120002A9E9
:104BD0001C4802F04DFA01211A4802F0E0F90122C6
:104BE00040F22551174802F01DFA26208DF80400E6
:104BF00006208DF8050000208DF8060001208DF8B4
:104C0000070001A8FFF70EFE4020069001208DF856
:104C10001C0000208DF81E0003208DF81D000120CF
:104C20008DF81F0006A90848FEF7E2FA4021064861
:104C3000FEF74BFB00200549088008B010BD0000BE
:104C40000000024000440040000C024068000020C8
:104C500010B588B0044601210820FFF729FE012184
:104C60008804FFF735FE072208212E48FEF708FBCF
:104C7000072209212B48FEF703FB4FF440700690F2
:104C800002208DF81C008DF81D0000208DF81E00FC
:104C900001208DF81F0006A92248FEF7A9FA029408
:104CA0000020ADF80C00ADF80E00ADF81000ADF826
:104CB00014000C20ADF8120002A91B4802F0D8F92C
:104CC0000121194802F06BF9012240F225511648E2
:104CD00002F0A8F927208DF8040006208DF80500C1
:104CE00000208DF8060001208DF8070001A8FFF7CD
:104CF00099FD0220069001208DF81C0000208DF8FF
:104D00001E0003208DF81D0001208DF81F0006A94C
:104D10000448FEF76DFA02210248FEF7D6FA08B001
:104D200010BD0000000C02400048004010B588B0E3
:104D3000044601214020FFF7BBFD01212020FFF7A1
:104D4000D7FD082209213248FEF79AFA08220E21DF
:104D50002F48FEF795FA4FF48440069002208DF814
:104D60001C008DF81D0000208DF81E0001208DF81C
:104D70001F0006A92648FEF73BFA02940020ADF872
:104D80000C00ADF80E00ADF81000ADF814000C20CA
:104D9000ADF8120002A91F4802F06AF901211D486E
:104DA00002F0FDF8012240F225511A4802F03AF9CA
:104DB00047208DF8040005208DF8050000208DF8AF
:104DC000060001208DF8070001A8FFF72BFD8020C9
:104DD000069001208DF81C0000208DF81E00032095
:104DE0008DF81D0001208DF81F0006A90848FEF768
:104DF000FFF980210648FEF766FA4FF48061044807
:104E0000FEF763FA00200449087008B010BD0000E6
:104E10000018024000140140640000201CB500206E
:104E200005F024FE03E04FF4FA7002F0B3FC00F04A
:104E300011FB0028F7D103F0C5F80C4901220868DE
:104E40000BA103F059FF02E0C82002F0A3FC6A4660
:104E500001A908A003F091F80028F5D106A004F0FC
:104E600071FA08A003F06AFB1CBD0000A8F801203D
:104E7000303A000030000000303A424D5343415276
:104E800044000000303A2F534F4300007CB50546E4
:104E9000002400200090019000260DB1022600E0C1
:104EA00000262248006800F0007008B10E207CBD8A
:104EB0001F49098888B26946FEF7D0F804460CB14C
:104EC0002046F4E7019800F4802060B31848008879
:104ED000000418490860372048604020886000209E
:104EE000C8604FF480600861084600F09BF83720E6
:104EF000FDF752FA04460CB12046D8E70D4806608B
:104F000006200C494860402088600020C8604FF4AB
:104F100080600861084600F085F80620FDF73CFA3D
:104F200004462046C3E72520C1E70000142C0140B9
:104F300058020020D012002001490860704700008C
:104F4000382C01400146034A106820F0FF00084356
:104F500010607047042C014000210B4B02681A605E
:104F60001B1D42681A601A1D116821F0F701D0E973
:104F700002231A4303691A4343691A431143024A3D
:104F80000832116070470000242C014001460020C7
:104F9000034A12680A400AB1012000E0002070476D
:104FA000342C01400248006800F003007047000004
:104FB000002C014010B500F07DFC10BD00210A4A14
:104FC000116847F6FF629143027D83681A43436884
:104FD0001A43C3681A4303681A4303691A43114307
:104FE000014A116070470000042C014000200B4969
:104FF0000860091D0860091D0860091D086007494F
:1050000024310860091D0860091D0860044803492F
:10501000383108600020091D08607047002C0140ED
:10502000FF07C0000021094B02681A601A1D1168B1
:105030006FF30A01D0E901231A43C3681A430369D5
:105040001A431143014A121D11607047082C014098
:105050000149086070470000002C014070B590B015
:1050600004460E46154600BF1A48FDF740FB0028CF
:10507000FAD11848FDF784FA4FF000600190164805
:105080000290039404950020059006904FF48060F0
:105090000790800008908000099000200A904FF44B
:1050A00040300B9004200C9003200D904FF4000032
:1050B0000E9080100F9001A90648FDF723FB2021D8
:1050C0000448FDF709FB01210248FDF74DFA10B035
:1050D00070BD000058640240802C014070B5044649
:1050E000002516480078032802D12725284670BDE0
:1050F0001248007838B111480078012803D00F48D1
:105100000078022817D1B4F5805F02D12725284600
:10511000EDE7E0B2FFF7BAFE054665B9084800685A
:1051200020F4C05006490860084600682043086023
:105130000846006808602846D9E7000054020020AD
:10514000042C0140F0B5014600200022BD4B1B7825
:1051500081F85630BC4B1B88A1F85430BB4B1B6800
:105160001A0E93090B70C2F383034B7002F0030312
:105170008B70B64B1B68C3F30742CA70B34B1B88D6
:10518000C3F307220A71B14B1A784A715B681A0E91
:105190001301CB80AD4B5B68C3F30742CB8843EA76
:1051A0001213CB8002F00F030B72A84B9B88C3F342
:1051B0000722D3094B72C2F380138B72C2F34013E0
:1051C000CB72C2F300130B7300234B739D4B1B7800
:1051D0003BB19C4B1B78012B03D09A4B1B78032BC4
:1051E0004FD193071B0D0B61984B1A790B6943EA5A
:1051F00082030B61954B9B681A0E0B6943EA92136D
:105200000B61C2F3C2030B7502F007034B758F4BA2
:105210009B68C3F3074253098B75C2F38203CB75B6
:1052200093075B0F0B76894B1B89C3F307220B7E19
:1052300043EAD2130B760B695B1C0024C1E91234DC
:105240000B7E9B1C012606FA03F3DE17D1E91245FB
:10525000A4FB037C05FB03C304FB0633C1E9127303
:105260000C7A0123A3400B650024D1E912560B6D83
:10527000A5FB037C06FB03C305FB0433C1E91273E2
:105280002CE0704B1B78022B28D1704B1A799306B7
:105290009B0A0B616D4B9B681A0E0B6943EA022354
:1052A0000B616A4B9B68C3F307420B6913430B61A5
:1052B000664B1B89C3F307220B695B1C4FF4007418
:1052C000A3FB043566000027A3FB064C05FB06C5BF
:1052D00003FB0753C1E9124373100B65C2F380133C
:1052E00001F8193F93065B0E4B70584B1A7A4B78B6
:1052F00043EAD2134B7002F07F038B70534BDB6891
:105300001A0ED309CB70C2F341130B71C2F382039F
:105310004B7193071B0F8B714C4BDB68C3F3074238
:105320008B7943EA92138B71C2F34013CB71002344
:105330000B7202F001034B72444B9B89C3F30722AB
:10534000D3098B72C2F38013CB72C2F340130B7379
:10535000C2F300134B73C2F381038B7302F0030398
:10536000CB733A4B1A7B53080B7401234B74384BA5
:105370001B681A0ECA741939354B1B68C3F30742F0
:105380001402CC85324B1B88C3F30722CB8D134309
:10539000CB852F4B1A7814060C635B681A0E0B6BC7
:1053A00043EA02440C632A4B5B68C3F307420B6B6E
:1053B00043EA02240C63264B9B88C3F307220B6B42
:1053C00013430B63224B1A7934235A54204B9B68A6
:1053D0001A0E35235A541E4B9B68C3F3074214061A
:1053E0008C631B4B1B89C3F307228B6B43EA02447C
:1053F0008C63174B1A7A8B6B43EA02248C63144B31
:10540000DB681A0E8B6B13438B63114BDB68C3F3A2
:1054100007423C235B5C43EA12143C235C541307B1
:105420001C0DCC870A4B9B89C3F30722CB8F1343F8
:10543000CB87074B1A7B540840235C54012441233B
:105440005C54F0BD5402002058020020FC120020E1
:105450000C1300203EB5002401213F48FFF728FA35
:105460000121C802FFF744FA0121C802FFF750FAF0
:105470004FF4F850019002208DF808008DF80900D3
:1054800000208DF80A0001208DF80B0001A9334897
:10549000FDF7AEFE0420019001A93148FDF7A8FEFA
:1054A0000C2208212D48FDF7EBFE0C2209212B4888
:1054B000FDF7E6FE0C220A212848FDF7E1FE0C224A
:1054C0000B212648FDF7DCFE0C2211462348FDF790
:1054D000D7FE0C2202212248FDF7D2FE00214FF414
:1054E0000060FFF715FAFFF781FD31208DF800000D
:1054F00000208DF801008DF8020001208DF80300D6
:105500006846FFF78FF900F0E3F8044614B900F09D
:105510002DF804461CB91348FFF714FE044634B9AD
:105520001049B1F85410080400F06CFD044624B989
:105530004FF40060FFF7D2FD04461CB10A48007822
:10554000032806D10020FFF7FDFC002000F072FDCB
:10555000044620463EBD00000C004000000802400A
:10556000000C0240201300205402002038B5002413
:1055700001200090FFF716FD10B92524204638BD04
:105580004D480078042824D000204C4908600220AF
:105590004860C02088600020C8604FF480600861C7
:1055A0000846FFF73FFDFCF729FF04460CB12046F3
:1055B000E5E743480068434908604148001D00682A
:1055C00048603F480830006888603D480C300068FB
:1055D000C8603948007858B137480078012807D0AA
:1055E00035480078062803D033480078022816D1C1
:1055F0000020324908600320486040208860002075
:10560000C8604FF4806008610846FFF70BFD6946EB
:105610000320FCF739FF04460CB12046AFE72648CB
:105620000078032816D1BDF8000000042349086063
:1056300003204860402088600020C8604FF48060EC
:1056400008610846FFF7EEFCFCF7D8FE04460CB1F3
:10565000204694E71848007804282AD0BDF80000B6
:1056600019490860BDF800000004144908600920C9
:105670004860C02088600020C8604FF480600861E6
:105680000846FFF7CFFCFCF7B9FE04460CB12046F4
:1056900075E70B4800680D4908600948001D00685F
:1056A0004860074808300068886005480C3000688A
:1056B000C860002063E7000054020020D0120020E0
:1056C000142C01400C13002058020020FC12002072
:1056D0002DE9F0470027002400260025A046A1461A
:1056E00076206E4908750020086048608860C860B0
:1056F00008610846FFF762FC0320FFF7A9FC684831
:10570000006840F480706649086000BF12E0002025
:105710006449086048608860C8604FF48060086130
:105720000846FFF77FFCFCF71EFE044604B903E0C1
:10573000781CC7B24A2FEADB00BF14B12046BDE88F
:10574000F0874FF4D5705749086008204860402022
:1057500088600020C8604FF4806008610846FFF749
:1057600061FCFCF7DBFE044624B901204E490870B9
:105770004FF0804900204B490860372048604020A6
:1057800088600020C8604FF4806008610846FFF719
:1057900049FC3720FCF700FE0446002C4CD135E0D4
:1057A0000020404908603720486040208860002081
:1057B000C8604FF4806008610846FFF733FC37206B
:1057C000FCF7EAFD04460CB12046B8E7374849EA41
:1057D000000034490860292048604020886000208B
:1057E000C8604FF4806008610846FFF71BFCFCF7B7
:1057F0002FFE04460CB12046A1E729481030066868
:10580000012080EAD67080F001086D1CB8F1000F0D
:1058100003D14FF6FF708542C2D34FF6FF70854229
:1058200002D31B2420468AE706F08040061E33D0B0
:1058300002201D4908702FE01DE01D48194908602D
:1058400001204860402088600020C8604FF48060DC
:1058500008610846FFF7E6FBFCF7FAFD04460CB1C9
:1058600020466CE70E4810300668012080EAD670AA
:1058700080F001086D1CB8F1000F03D14FF6FF70E6
:105880008542DAD34FF6FF70854202D31B242046AF
:1058900055E7032004490870204650E7B81200205D
:1058A000042C0140D012002054020020000010807F
:1058B0000080FF8010B54FF48070FFF767FB78B36E
:1058C0004C480078012814D100204B4908600C2076
:1058D0004860402088600020C8604FF48060086104
:1058E0000846FFF79FFB0C20FCF756FD4349087064
:1058F00002E00020414908704148006840F480708F
:105900003F490860081D00684CF23A3188433C4921
:10591000091D086001203B4908703848007810BD17
:10592000FFE70220FFF732FB78B10220FFF704FB0C
:105930003348001D00684CF23A3188433049091D54
:10594000086002202D490870E9E70820FFF71EFBD8
:1059500078B10820FFF7F0FA2948001D00684CF2E2
:105960003A3188432649091D0860042023490870FC
:10597000D5E72020FFF70AFB78B12020FFF7DCFAFB
:105980001F48001D00684CF23A3188431C49091D2C
:105990000860062019490870C1E71020FFF7F6FAE1
:1059A00078B11020FFF7C8FA1548001D00684CF2C6
:1059B0003A3188431249091D086005200F490870D3
:1059C000ADE74FF40070FFF7E1FA80B14FF40070DB
:1059D000FFF7B2FA0A48001D00684CF23A318843DA
:1059E0000749091D086007200449087097E700204F
:1059F00095E700005D020020D01200205E0200202A
:105A0000382C01405F0200202DE9F84F81461746EF
:105A100098460A9C4FF0000AD3464D464FF0FF3699
:105A2000B9F1000F02D12620BDE8F88F0020864989
:105A3000086086480078022805D10402780A40EA06
:105A4000C8574FEA68280020814988604860401E96
:105A50000860012048610020C86008610846FFF71F
:105A60007BFA79481838006800F0007008B10E2001
:105A7000DAE7002C21DDB4F5006F1EDC601E20404B
:105A8000D8B9204601F0BCFC009072480460102098
:105A900070494860402088600020C8604FF48060F2
:105AA00008610846FFF7BEFA1020FCF775FC824635
:105AB000BAF1000F03D05046B6E72620B4E70098AD
:105AC000000163498860084644604FF0FF30086079
:105AD000012048610220C860002008610846FFF7E5
